:020000040800F2
:10000000480400209D010008A5010008A701000880
:10001000A9010008AB010008AD01000800000000C4
:10002000000000000000000000000000AF01000818
:10003000B101000800000000B301000855110008DC
:10004000B7010008B7010008B7010008B7010008B0
:10005000B7010008B7010008B7010008B7010008A0
:10006000B7010008B7010008B7010008B701000890
:10007000B7010008B7010008B7010008B701000880
:10008000B7010008B7010008B7010008B701000870
:10009000B7010008B7010008B7010008B701000860
:1000A000B7010008B7010008B7010008B701000850
:1000B000B701000821120008B7010008B7010008C5
:1000C000B7010008B7010008B7010008B701000830
:1000D000B7010008B7010008B7010008B701000820
:1000E000B7010008B7010008B7010008B701000810
:1000F000B7010008B7010008B7010008B701000800
:10010000B7010008B7010008B7010008B7010008EF
:10011000B7010008B7010008B7010008B7010008DF
:10012000B7010008B7010008B7010008B7010008CF
:10013000B7010008B7010008B7010008B7010008BF
:10014000B7010008B7010008B7010008B7010008AF
:10015000B7010008B7010008B7010008B70100089F
:10016000B7010008B7010008B7010008B70100088F
:10017000B7010008B7010008B7010008000000003F
:10018000B7010008B7010008DFF80CD000F018F83C
:1001900000480047851300084804002006488047AF
:1001A00006480047FEE7FEE7FEE7FEE7FEE7FEE75C
:1001B000FEE7FEE7FEE7FEE7DD1100088901000823
:1001C000064C074D06E0E06840F0010394E80700A4
:1001D00098471034AC42F6D3FFF7DAFF5414000806
:1001E0007414000870B5044600F0FEF80546601C63
:1001F00000D0641C00F0F8F8401BA042FAD370BD98
:100200002DE9F84FDFF898B100234FF0010C4FF0C3
:10021000030A4FF00F090BF1040EB9E00CFA03F4D6
:10022000224070D04D68022D01D0122D0ED1DD0874
:1002300000EB8508D8F820505E07F70E09FA07F69C
:10024000B5430E69BE402E43C8F8206007685E00C3
:1002500091F804800AFA06F508F00308AF4308FA9B
:1002600006F848EA0708C0F800804F68012F05D05B
:10027000022F03D0112F01D0122F13D1D0F80880F4
:10028000CF6828EA0508B74047EA08078760D0F832
:1002900004800F7928EA0408C7F300179F4047EA53
:1002A00008074760D1F804806FEA0807BF0706D146
:1002B000C76AA743C8F3C0049C403C43C462C468F7
:1002C000AC438D68B5402543C5604C68E4005ED5FD
:1002D000344C256E45F001052566246E23F0030598
:1002E00004F001040094304C2E19B4689D072F0FC0
:1002F00009FA07F5AC43B0F1904F05D02B4DA84259
:1003000004D101251CE042E0002519E0284DA84257
:1003100001D1022514E0274DA84201D103250FE0A9
:10032000254DA84201D104250AE0244DA84201D15F
:10033000052505E0224DA84201D1062500E007254C
:10034000BD402543B560DBF800405D464E689443F0
:10035000F60300D514432C60DEF8004075464E6865
:100360009443B60300D514432C600D4D08352C681A
:100370004E689443F60200D514432C60084D0C35AA
:100380002C684E689443B60200D514432C605B1C65
:100390000A6832FA03F57FF441AF00F013B80000A9
:1003A0000004014000100240000001400004004829
:1003B00000080048000C00480010004800140048E5
:1003C0000018004818BCBDE8E08F0069084000D064
:1003D0000120704742694A40426170470AB1816119
:1003E0007047816270470000014800687047000054
:1003F0000000002002480168491C016070470000AD
:1004000000000020074810B5016841F480710160C8
:10041000032000F089F8002000F006F800F018F83A
:10042000002010BD0020024010B5044607484FF4DC
:100430007A710068B0FBF1F000F0F7FB0022214672
:10044000501E00F051F8002010BD000004000020F4
:100450001E4808B5016E41F001010166016E01F010
:1004600001010091816D41F080518165806D00F046
:1004700080500090032000F057F8002211466FF0E2
:100480000B0000F031F8002211466FF00A0000F076
:100490002BF8002211466FF0090000F025F8002229
:1004A0001146501F00F020F800221146101F00F0E6
:1004B0001BF800221146901E00F016F80022BDE83D
:1004C00008401146501E00F00FB800000010024016
:1004D00000F01F02012191404009800000F1E0205E
:1004E000C0F8001170470000F0B40E4B1B680C46BA
:1004F000C3F30223C3F10705042D00D90425191DF8
:10050000072901D2002300E0DB1E012606FA05F1CF
:10051000491E214099409E40761E16403143F0BC52
:1005200000F0CABD0CED00E0064900F007020868C3
:100530004FF6FF03184040EA0220034A10430860C8
:10054000704700000CED00E00000FA051549B0F519
:10055000007F0868C0F3412009D0022805D0086850
:1005600020F4C06040F480600860002070470128DB
:10057000FBD0086820F4C06040F4007008600A48AE
:100580000A4A0068B0FBF2F03222504300E0401EFD
:1005900010B14A695205FAD448694005E5D50320EF
:1005A00070470000007000400400002040420F002F
:1005B0000248006800F4C06070470000007000400E
:1005C0002DE9F0470F46050058D03E4E306800F048
:1005D0000700B84209D2306820F007003843306085
:1005E000306800F00700B84248D12878364CC00780
:1005F0002CD06868032811D0022812D0216898B145
:10060000490500293ADAA16821F003010143A160FC
:10061000FFF7EAFE804641F2883910E0216889013F
:10062000EFE721688903ECE78907EAE7FFF7DCFEDB
:10063000A0EB0801494502D90320BDE8F087A06876
:10064000696800F00C00B0EB810FEFD128788007CB
:1006500005D5A068A96820F0F0000843A0603068C4
:1006600000F00700B8420BD9306820F0070038438B
:100670003060306800F00700B84201D00120DCE7AC
:100680002878400705D5A068E96820F4E0600843B1
:10069000A0602878000706D5A068296920F460507A
:1006A00040EAC100A06000F01BF8A168074AC1F34E
:1006B0000311515CC840064908600020FFF7B4FEF2
:1006C0000020BAE700200240001002401414000885
:1006D000040000200148006870470000040000206A
:1006E00030B52D49002318468A682C4C12F00C0FA7
:1006F0004FEA640514D08A68C2F38102032A04D148
:10070000CA6802F00302012A0AD08A68C2F3810291
:10071000012A19D08A68C2F38102022A16D016E093
:100720000A68120704D4D1F89420C2F3032202E02D
:100730000A68C2F303121A4B53F822308A6812F087
:100740000C0F04D1184602E0204600E028468A68D3
:10075000C2F38102032A1DD1C868CA6800F00300F1
:10076000C2F30212521C022804D0032805D0B3FBA6
:10077000F2F004E0B4FBF2F001E0B5FBF2F0CA687D
:10078000C968C2F306225043C1F34161491C4900C4
:10079000B0FBF1F030BD0000001002400024F40076
:1007A000241400082DE9F84304007DD02078FF4D83
:1007B000C0065DD5A86810F00C0F0AD0A06900280B
:1007C000286873D040F001002860FFF70DFE064650
:1007D00055E02868800702D5A0690028E5D0216A85
:1007E0002868000703D5286800F0F00004E0D5F879
:1007F0009400F02202EA1010814216D9084600F057
:100800006BFC002850D1286840F008002860286858
:10081000216A20F0F000084328606868E16920F44C
:100820007F4040EA0120686015E0286840F0080039
:1008300028602868216A20F0F00008432860686872
:10084000E16920F47F4040EA01206860206A00F0FE
:1008500043FC0028D6D1FFF743FFA968D44AC1F36F
:100860000311515CC840D34908600020FFF7DCFD4C
:100870002CE000BFFFF7B8FD801B02287ED8286857
:100880008007F7D5286840F0080028602868216AAA
:1008900020F0F000084328606868E16920F47F4098
:1008A00040EA0120686011E0B2E0FFE720F00100BB
:1008B0002860FFF799FD064605E000BFFFF794FDAD
:1008C000801B0228DAD828688007F7D42078C00770
:1008D00048D0A868C0F3810002281DD0A868C0F3E2
:1008E0008100032803D1E868C043800714D0606802
:1008F000B0F5803F17D0B0F5A02F286817D020F4AE
:1009000080302860286820F4802028606068E0B18A
:10091000FFF76AFD064614E02868800322D5606868
:10092000002875D01EE0286840F48030EDE740F4E0
:1009300080202860F7E700BFFFF756FD801B642882
:100940009CD828688003F7D50CE0FFF74DFD0646DC
:1009500005E000BFFFF748FD801B64288ED828689B
:100960008003F7D42078800742D5A868C0F38100BF
:10097000012816D0A868C0F3810000E0A9E0032890
:1009800004D1E86800F0030002280AD0E0680028DB
:1009900028681DD040F480702860FFF725FD0646CA
:1009A0000BE0286840050BD5E0680028B9D007E0C7
:1009B000FFF71AFD801B022884D828684005F7D568
:1009C0006868217C20F0F85040EA016068600FE020
:1009D00020F480702860FFF707FD064605E000BFA1
:1009E000FFF702FD801B022873D828684005F7D462
:1009F0002078000729D560690028D5F8940013D025
:100A000040F00100C5F89400FFF7EEFC064606E052
:100A1000FBE000BFFFF7E8FC801B022859D8D5F89F
:100A200094008007F6D510E020F00100C5F894008E
:100A3000FFF7DAFC064604E0FFF7D6FC801B02282D
:100A400047D8D5F894008007F6D42078400763D5BE
:100A5000A86D0026C00008D4A86D40F08050A8659D
:100A6000A86D012600F08050009053480168C90528
:100A700011D40168804641F480710160FFF7B4FC35
:100A8000074604E0FFF7B0FCC01B022821D8D8F8C5
:100A90000000C005F6D5A068012815D00528D5F8B6
:100AA000900017D020F00100C5F89000D5F8900014
:100AB00020F00400C5F89000A06841F28838C8B161
:100AC000FFF792FC074610E0D5F8900040F00100D7
:100AD000F0E777E040F00400C5F89000F4E700BFCD
:100AE000FFF782FCC11B41456CD8D5F89000800708
:100AF000F6D50CE0FFF778FC074604E0FFF774FC3E
:100B0000C11B414579D8D5F890008007F6D41EB1B5
:100B1000A86D20F08050A865A06AE0B3A968C1F371
:100B20008101032972D00228286820F08070286093
:100B300011D02868000106D42868800003D4E86832
:100B400020F00300E860E8681C490840E860FFF70F
:100B50004BFC044654E0FFF747FC064605E000BFA7
:100B6000FFF742FC801B022847D828688001F7D491
:100B7000206BE16A000110380843616BA26B090227
:100B8000120941EA42410843A18F0D4A490802EB8C
:100B90004151084300E036E094F840104908120142
:100BA00002EB41610843E86028680CE00010024055
:100BB000141400080400002000700040FFFFEEFE47
:100BC0000000E0FF19E040F080702860E86840F025
:100BD0008070E860FFF708FC044604E0FFF704FCBF
:100BE000001B022809D828688001F7D50BE000BF58
:100BF000FFF7FAFB001B022802D90320BDE8F883A7
:100C000028688001F4D40020F8E7FFE70120F5E729
:100C10004FF0E0210428086903D020F004000861A7
:100C2000704740F00400FAE7704710B5401EB0F17D
:100C3000807F01D3012010BD4FF0E02460610F21BF
:100C4000601700F039FA0020A06107202061002021
:100C500010BD10B5FFF7E8FF10BD70477047704733
:100C600070B590F83C20012A24D0012480F83C4043
:100C7000022280F83D200268536895680E4EB24209
:100C800002D00E4EB24203D123F470064B683343B8
:100C900023F070060B688968334325F080052943EB
:100CA00053600268916080F83D40002180F83C105C
:100CB000084670BD022070BD002C01400034014088
:100CC00010B5040003D094F83D0010B107E00120F6
:100CD00010BD002084F83C00204600F00DF80220F2
:100CE00084F83D00211D206800F0A8FA012084F856
:100CF0003D00002010BD000008B500680B49884287
:100D000012D10B48816D41F002018165806D002296
:100D100000F00200009011461D20FFF7E5FBBDE842
:100D200008401D20FFF7D4BB08BD000000040040B0
:100D3000001002400168CA6842F00102CA600068FF
:100D4000826807490A40062A08D082680A40B2F53C
:100D5000803F03D0016841F001010160002070472D
:100D60000700010070B5044690F83C00012817D038
:100D7000012584F83C50022084F83D0020688268F8
:100D8000324E324022F47F4282600868502839D0C7
:100D90000DDC202855D005DC98B3102843D150E055
:100DA000022070BD30284CD040283CD141E0602862
:100DB00030D070280CD0B0F5805F03D0B0F5005F64
:100DC00031D112E020688168204A7032114016E06B
:100DD000CB68D1E90121206800F090FA2168886889
:100DE000304040F0770088601DE0CB68D1E90121F8
:100DF000206800F083FA2068816841F480418160B6
:100E000011E01EE0CA684968206800F089FA5021A4
:100E1000206806E0CA684968206800F092FA6021FC
:100E2000206800F075FA84F83D50002084F83C00FA
:100E300070BDCA684968206800F072FA40212068D5
:100E4000EFE7226801461046EBE7000088FFFEFF4F
:100E5000704770B50446006801694FF00005C9434A
:100E6000890715D4C168C943890711D4E91E0161F6
:100E700001202077206880698007204602D0FFF794
:100E8000E7FF04E000F0A7F8204600F0A5F825777A
:100E900020680169C943490717D4C168C943490794
:100EA00013D46FF00401016102202077206880696B
:100EB00010F4407F204602D0FFF7CAFF04E000F0A4
:100EC0008AF8204600F088F8257720680169C94330
:100ED000090716D4C168C943090712D46FF0080185
:100EE0000161042020772068C0698007204602D075
:100EF000FFF7AEFF04E000F06EF8204600F06CF85B
:100F0000257720680169C943C90617D4C168C94358
:100F1000C90613D46FF01001016108202077206802
:100F2000C06910F4407F204602D0FFF791FF04E033
:100F300000F051F8204600F04FF82577206801694D
:100F4000C943C90708D1C168C943C90704D1891E6B
:100F50000161204600F041F820680169C943090693
:100F600009D4C168C943090605D46FF08001016145
:100F70002046FFF773FE20680169C943C90509D4FB
:100F8000C168C943090605D46FF480710161204628
:100F9000FFF763FE20680169C943490609D4C168A7
:100FA000C943490605D46FF040010161204600F0B5
:100FB00015F820680169C94389060BD4C168C94383
:100FC000890607D46FF0200101612046BDE870401A
:100FD000FFF745BE70BD704770477047704700000F
:100FE00030B51C4887B0C16C41F00401C164C16CCC
:100FF00001F004010591C16C41F08001C164C16C34
:1010000001F080010591C16C41F00101C164C06C27
:101010004FF0904500F00100059000222021284665
:10102000FFF7DCF94FF4005000900B480024CDE9A5
:10103000010469460948FFF7E3F8202000900120E9
:10104000CDE90104694628460394FFF7D9F807B0B3
:1010500030BD0000001002400000211000080048D0
:1010600010B5144888B01249016041F63F71002460
:10107000C0E901144CF25031C0E903148461FFF758
:101080001FFE00B1FEE74FF48050039003A909480A
:10109000FFF768FE00B1FEE7009469460548029438
:1010A000FFF7DEFD002800D0FEE708B010BD00000D
:1010B00000040040080000200907090E002806DA95
:1010C00000F00F0000F1E02080F8141D704700F1DF
:1010D000E02080F800147047F8B51C4D0646002447
:1010E000A86DC00002D5FFF763FA0DE0A86D40F0CF
:1010F0008050A865A86D00F080500090FFF758FA66
:10110000A96D21F08051A965B0F5007F04D0802E33
:1011100007D94FF003040AE0802E08D9A02E01D889
:1011200004E001D1022402E0702E00D1012408481D
:10113000016821F0070121430160006800F0070009
:10114000A04201D00120F8BD0020F8BD00100240EF
:101150000020024010B5FFF74DF9BDE81040FFF741
:1011600078BD00B597B00220C10103911021009015
:1011700004910A900121CDE90B010A210D9107216B
:10118000CDE90E1010906846FFF70CFB00B1FEE7AA
:101190000F201190032012900020139014901590AE
:1011A000042111A8FFF70CFA00B1FEE74FF400701C
:1011B000FFF7CCF900B1FEE7FFF78CFA4FF47A7134
:1011C000B0FBF1F0FFF731FD0420FFF721FD002215
:1011D0001146501EFFF788F917B000BD0D48016891
:1011E00041F4700101600C48016841F001010160A7
:1011F000002181600268094B1A4002608214C260BB
:10120000026822F48022026081610249C0038039B1
:101210000860704788ED00E000100240FFFFF6EA2A
:1012200010B50548FFF715FEBDE8104020214FF02E
:101230009040FFF7CFB80000080000202DE9F047EC
:101240000268264B264D274E274F284C4FF0804AE8
:10125000984209D0504507D0A84205D0B04203D0EB
:10126000B84201D0A04204D122F0700C4A6842EA90
:101270000C02DFF87CC0DFF87C80DFF87C909842BD
:101280000FD050450DD0A8420BD0B04209D0B84283
:1012900007D0A04205D0604503D0404501D0484565
:1012A00003D122F44075CA682A434D6922F08002B6
:1012B0002A4302608A68C2620A688262984207D042
:1012C000A04205D0604503D0404501D0484501D13A
:1012D0000969016301214161BDE8F087002C0140EB
:1012E0000004004000080040000C004000340140B1
:1012F00000400140004401400048014010B58468AE
:1013000042EA032224F47F440A432243826010BD50
:10131000826822F070020A4342F007018160704740
:1013200010B5036A046A24F001040462846924F09D
:10133000F00444EA021423F00A020A4384610262C0
:1013400010BD10B5036A23F0100303628369046AB9
:1013500023F4704343EA023224F0A00343EA01116C
:101360008261016210BD02E008C8121F08C1002A94
:10137000FAD170477047002001E001C1121F002A16
:10138000FBD17047FFF73EF80024FFF7EAFEFFF7B6
:1013900027FEFFF765FE1D48FFF7CCFC1C4F1B4DD9
:1013A0004FF4005631463846FFF70FF818B964205D
:1013B000641CFEF717FF3CB1022C10D0042C19D08E
:1013C000062CEFD10024EDE742F21070E8600F48E0
:1013D000FFF776FC0D48FFF7ADFC0124E2E74FF480
:1013E0007A70E8600948FFF76BFC0848FFF7A2FC39
:1013F0000324D7E747F23050E8600448FFF760FC69
:101400000248FFF797FC0524CCE700000800002005
:101410000008004800000000000000000102030472
:1014200006070809A0860100400D0300801A060087
:1014300000350C0040420F0080841E0000093D0072
:1014400000127A000024F40000366E010048E80122
:10145000006CDC027414000800000020080000008A
:10146000661300087C1400080800002040040000F7
:0C147000761300080000000000093D0099
:040000050800018965
:00000001FF
